{
    "_format": "hh-sol-artifact-1",
    "contractName": "MarketPlace",
    "sourceName": "contracts/MarketPlace.sol",
    "abi": [
        {
            "inputs": [],
            "stateMutability": "nonpayable",
            "type": "constructor"
        },
        {
            "anonymous": false,
            "inputs": [
                {
                    "indexed": true,
                    "internalType": "uint256",
                    "name": "_produtId",
                    "type": "uint256"
                }
            ],
            "name": "saveProduct",
            "type": "event"
        },
        {
            "inputs": [
                {
                    "internalType": "string",
                    "name": "_itemName",
                    "type": "string"
                },
                {
                    "internalType": "uint256",
                    "name": "_askingPrice",
                    "type": "uint256"
                }
            ],
            "name": "addProduct",
            "outputs": [],
            "stateMutability": "nonpayable",
            "type": "function"
        },
        {
            "inputs": [
                {
                    "internalType": "uint256",
                    "name": "_productId",
                    "type": "uint256"
                }
            ],
            "name": "getProduct",
            "outputs": [
                {
                    "components": [
                        {
                            "internalType": "uint256",
                            "name": "id",
                            "type": "uint256"
                        },
                        {
                            "internalType": "string",
                            "name": "itemName",
                            "type": "string"
                        },
                        {
                            "internalType": "address",
                            "name": "creator",
                            "type": "address"
                        },
                        {
                            "internalType": "address",
                            "name": "owner",
                            "type": "address"
                        },
                        {
                            "internalType": "uint256",
                            "name": "askingPrice",
                            "type": "uint256"
                        },
                        {
                            "internalType": "bool",
                            "name": "isSold",
                            "type": "bool"
                        }
                    ],
                    "internalType": "struct MarketPlace.Product",
                    "name": "",
                    "type": "tuple"
                }
            ],
            "stateMutability": "view",
            "type": "function"
        },
        {
            "inputs": [],
            "name": "getProducts",
            "outputs": [
                {
                    "components": [
                        {
                            "internalType": "uint256",
                            "name": "id",
                            "type": "uint256"
                        },
                        {
                            "internalType": "string",
                            "name": "itemName",
                            "type": "string"
                        },
                        {
                            "internalType": "address",
                            "name": "creator",
                            "type": "address"
                        },
                        {
                            "internalType": "address",
                            "name": "owner",
                            "type": "address"
                        },
                        {
                            "internalType": "uint256",
                            "name": "askingPrice",
                            "type": "uint256"
                        },
                        {
                            "internalType": "bool",
                            "name": "isSold",
                            "type": "bool"
                        }
                    ],
                    "internalType": "struct MarketPlace.Product[]",
                    "name": "",
                    "type": "tuple[]"
                }
            ],
            "stateMutability": "view",
            "type": "function"
        },
        {
            "inputs": [
                {
                    "internalType": "uint256",
                    "name": "",
                    "type": "uint256"
                }
            ],
            "name": "products",
            "outputs": [
                {
                    "internalType": "uint256",
                    "name": "id",
                    "type": "uint256"
                },
                {
                    "internalType": "string",
                    "name": "itemName",
                    "type": "string"
                },
                {
                    "internalType": "address",
                    "name": "creator",
                    "type": "address"
                },
                {
                    "internalType": "address",
                    "name": "owner",
                    "type": "address"
                },
                {
                    "internalType": "uint256",
                    "name": "askingPrice",
                    "type": "uint256"
                },
                {
                    "internalType": "bool",
                    "name": "isSold",
                    "type": "bool"
                }
            ],
            "stateMutability": "view",
            "type": "function"
        },
        {
            "inputs": [
                {
                    "internalType": "uint256",
                    "name": "_prodId",
                    "type": "uint256"
                }
            ],
            "name": "sellProduct",
            "outputs": [],
            "stateMutability": "nonpayable",
            "type": "function"
        },
        {
            "inputs": [],
            "name": "totalProducts",
            "outputs": [
                {
                    "internalType": "uint256",
                    "name": "",
                    "type": "uint256"
                }
            ],
            "stateMutability": "view",
            "type": "function"
        }
    ],
    "bytecode": "0x60806040523480156200001157600080fd5b506000600181905550620000636040518060400160405280600781526020017f73616d73756e67000000000000000000000000000000000000000000000000008152506161a86200006960201b60201c565b62000549565b600080600060015481526020019081526020016000209050828160010190805190602001906200009b929190620003ad565b50338160020160006101000a81548173ffffffffffffffffffffffffffffffffffffffff021916908373ffffffffffffffffffffffffffffffffffffffff160217905550338160030160006101000a81548173ffffffffffffffffffffffffffffffffffffffff021916908373ffffffffffffffffffffffffffffffffffffffff16021790555081816004018190555060008160050160006101000a81548160ff0219169083151502179055506040518060c0016040528060015481526020018260010180546200016c906200048c565b80601f01602080910402602001604051908101604052809291908181526020018280546200019a906200048c565b8015620001eb5780601f10620001bf57610100808354040283529160200191620001eb565b820191906000526020600020905b815481529060010190602001808311620001cd57829003601f168201915b505050505081526020018260020160009054906101000a900473ffffffffffffffffffffffffffffffffffffffff1673ffffffffffffffffffffffffffffffffffffffff1681526020018260030160009054906101000a900473ffffffffffffffffffffffffffffffffffffffff1673ffffffffffffffffffffffffffffffffffffffff168152602001826004015481526020018260050160009054906101000a900460ff1615158152506000806001548152602001908152602001600020600082015181600001556020820151816001019080519060200190620002d2929190620003ad565b5060408201518160020160006101000a81548173ffffffffffffffffffffffffffffffffffffffff021916908373ffffffffffffffffffffffffffffffffffffffff16021790555060608201518160030160006101000a81548173ffffffffffffffffffffffffffffffffffffffff021916908373ffffffffffffffffffffffffffffffffffffffff1602179055506080820151816004015560a08201518160050160006101000a81548160ff02191690831515021790555090505060016000815480929190620003a390620004fb565b9190505550505050565b828054620003bb906200048c565b90600052602060002090601f016020900481019282620003df57600085556200042b565b82601f10620003fa57805160ff19168380011785556200042b565b828001600101855582156200042b579182015b828111156200042a5782518255916020019190600101906200040d565b5b5090506200043a91906200043e565b5090565b5b80821115620004595760008160009055506001016200043f565b5090565b7f4e487b7100000000000000000000000000000000000000000000000000000000600052602260045260246000fd5b60006002820490506001821680620004a557607f821691505b60208210811415620004bc57620004bb6200045d565b5b50919050565b7f4e487b7100000000000000000000000000000000000000000000000000000000600052601160045260246000fd5b6000819050919050565b60006200050882620004f1565b91507fffffffffffffffffffffffffffffffffffffffffffffffffffffffffffffffff8214156200053e576200053d620004c2565b5b600182019050919050565b61123580620005596000396000f3fe608060405234801561001057600080fd5b50600436106100625760003560e01c8063492deb15146100675780637acc0b20146100835780639b9d326d146100b8578063b15247d9146100d6578063b9db15b4146100f2578063c29b2f2014610122575b600080fd5b610081600480360381019061007c9190610b23565b610140565b005b61009d60048036038101906100989190610b23565b6101ba565b6040516100af96959493929190610c54565b60405180910390f35b6100c06102cb565b6040516100cd9190610cbc565b60405180910390f35b6100f060048036038101906100eb9190610e0c565b6102d1565b005b61010c60048036038101906101079190610b23565b610607565b6040516101199190610f68565b60405180910390f35b61012a6107a0565b60405161013791906110d5565b60405180910390f35b60008060008381526020019081526020016000209050338160030160006101000a81548173ffffffffffffffffffffffffffffffffffffffff021916908373ffffffffffffffffffffffffffffffffffffffff16021790555060018160050160006101000a81548160ff0219169083151502179055505050565b60006020528060005260406000206000915090508060000154908060010180546101e390611126565b80601f016020809104026020016040519081016040528092919081815260200182805461020f90611126565b801561025c5780601f106102315761010080835404028352916020019161025c565b820191906000526020600020905b81548152906001019060200180831161023f57829003601f168201915b5050505050908060020160009054906101000a900473ffffffffffffffffffffffffffffffffffffffff16908060030160009054906101000a900473ffffffffffffffffffffffffffffffffffffffff16908060040154908060050160009054906101000a900460ff16905086565b60015481565b600080600060015481526020019081526020016000209050828160010190805190602001906103019291906109d2565b50338160020160006101000a81548173ffffffffffffffffffffffffffffffffffffffff021916908373ffffffffffffffffffffffffffffffffffffffff160217905550338160030160006101000a81548173ffffffffffffffffffffffffffffffffffffffff021916908373ffffffffffffffffffffffffffffffffffffffff16021790555081816004018190555060008160050160006101000a81548160ff0219169083151502179055506040518060c0016040528060015481526020018260010180546103d090611126565b80601f01602080910402602001604051908101604052809291908181526020018280546103fc90611126565b80156104495780601f1061041e57610100808354040283529160200191610449565b820191906000526020600020905b81548152906001019060200180831161042c57829003601f168201915b505050505081526020018260020160009054906101000a900473ffffffffffffffffffffffffffffffffffffffff1673ffffffffffffffffffffffffffffffffffffffff1681526020018260030160009054906101000a900473ffffffffffffffffffffffffffffffffffffffff1673ffffffffffffffffffffffffffffffffffffffff168152602001826004015481526020018260050160009054906101000a900460ff161515815250600080600154815260200190815260200160002060008201518160000155602082015181600101908051906020019061052e9291906109d2565b5060408201518160020160006101000a81548173ffffffffffffffffffffffffffffffffffffffff021916908373ffffffffffffffffffffffffffffffffffffffff16021790555060608201518160030160006101000a81548173ffffffffffffffffffffffffffffffffffffffff021916908373ffffffffffffffffffffffffffffffffffffffff1602179055506080820151816004015560a08201518160050160006101000a81548160ff021916908315150217905550905050600160008154809291906105fd90611187565b9190505550505050565b61060f610a58565b6000808381526020019081526020016000206040518060c00160405290816000820154815260200160018201805461064690611126565b80601f016020809104026020016040519081016040528092919081815260200182805461067290611126565b80156106bf5780601f10610694576101008083540402835291602001916106bf565b820191906000526020600020905b8154815290600101906020018083116106a257829003601f168201915b505050505081526020016002820160009054906101000a900473ffffffffffffffffffffffffffffffffffffffff1673ffffffffffffffffffffffffffffffffffffffff1673ffffffffffffffffffffffffffffffffffffffff1681526020016003820160009054906101000a900473ffffffffffffffffffffffffffffffffffffffff1673ffffffffffffffffffffffffffffffffffffffff1673ffffffffffffffffffffffffffffffffffffffff168152602001600482015481526020016005820160009054906101000a900460ff1615151515815250509050919050565b6060600060015467ffffffffffffffff8111156107c0576107bf610ce1565b5b6040519080825280602002602001820160405280156107f957816020015b6107e6610a58565b8152602001906001900390816107de5790505b50905060005b6001548110156109ca5760008060008381526020019081526020016000209050806040518060c00160405290816000820154815260200160018201805461084590611126565b80601f016020809104026020016040519081016040528092919081815260200182805461087190611126565b80156108be5780601f10610893576101008083540402835291602001916108be565b820191906000526020600020905b8154815290600101906020018083116108a157829003601f168201915b505050505081526020016002820160009054906101000a900473ffffffffffffffffffffffffffffffffffffffff1673ffffffffffffffffffffffffffffffffffffffff1673ffffffffffffffffffffffffffffffffffffffff1681526020016003820160009054906101000a900473ffffffffffffffffffffffffffffffffffffffff1673ffffffffffffffffffffffffffffffffffffffff1673ffffffffffffffffffffffffffffffffffffffff168152602001600482015481526020016005820160009054906101000a900460ff1615151515815250508383815181106109ab576109aa6111d0565b5b60200260200101819052505080806109c290611187565b9150506107ff565b508091505090565b8280546109de90611126565b90600052602060002090601f016020900481019282610a005760008555610a47565b82601f10610a1957805160ff1916838001178555610a47565b82800160010185558215610a47579182015b82811115610a46578251825591602001919060010190610a2b565b5b509050610a549190610abc565b5090565b6040518060c001604052806000815260200160608152602001600073ffffffffffffffffffffffffffffffffffffffff168152602001600073ffffffffffffffffffffffffffffffffffffffff168152602001600081526020016000151581525090565b5b80821115610ad5576000816000905550600101610abd565b5090565b6000604051905090565b600080fd5b600080fd5b6000819050919050565b610b0081610aed565b8114610b0b57600080fd5b50565b600081359050610b1d81610af7565b92915050565b600060208284031215610b3957610b38610ae3565b5b6000610b4784828501610b0e565b91505092915050565b610b5981610aed565b82525050565b600081519050919050565b600082825260208201905092915050565b60005b83811015610b99578082015181840152602081019050610b7e565b83811115610ba8576000848401525b50505050565b6000601f19601f8301169050919050565b6000610bca82610b5f565b610bd48185610b6a565b9350610be4818560208601610b7b565b610bed81610bae565b840191505092915050565b600073ffffffffffffffffffffffffffffffffffffffff82169050919050565b6000610c2382610bf8565b9050919050565b610c3381610c18565b82525050565b60008115159050919050565b610c4e81610c39565b82525050565b600060c082019050610c696000830189610b50565b8181036020830152610c7b8188610bbf565b9050610c8a6040830187610c2a565b610c976060830186610c2a565b610ca46080830185610b50565b610cb160a0830184610c45565b979650505050505050565b6000602082019050610cd16000830184610b50565b92915050565b600080fd5b600080fd5b7f4e487b7100000000000000000000000000000000000000000000000000000000600052604160045260246000fd5b610d1982610bae565b810181811067ffffffffffffffff82111715610d3857610d37610ce1565b5b80604052505050565b6000610d4b610ad9565b9050610d578282610d10565b919050565b600067ffffffffffffffff821115610d7757610d76610ce1565b5b610d8082610bae565b9050602081019050919050565b82818337600083830152505050565b6000610daf610daa84610d5c565b610d41565b905082815260208101848484011115610dcb57610dca610cdc565b5b610dd6848285610d8d565b509392505050565b600082601f830112610df357610df2610cd7565b5b8135610e03848260208601610d9c565b91505092915050565b60008060408385031215610e2357610e22610ae3565b5b600083013567ffffffffffffffff811115610e4157610e40610ae8565b5b610e4d85828601610dde565b9250506020610e5e85828601610b0e565b9150509250929050565b610e7181610aed565b82525050565b600082825260208201905092915050565b6000610e9382610b5f565b610e9d8185610e77565b9350610ead818560208601610b7b565b610eb681610bae565b840191505092915050565b610eca81610c18565b82525050565b610ed981610c39565b82525050565b600060c083016000830151610ef76000860182610e68565b5060208301518482036020860152610f0f8282610e88565b9150506040830151610f246040860182610ec1565b506060830151610f376060860182610ec1565b506080830151610f4a6080860182610e68565b5060a0830151610f5d60a0860182610ed0565b508091505092915050565b60006020820190508181036000830152610f828184610edf565b905092915050565b600081519050919050565b600082825260208201905092915050565b6000819050602082019050919050565b600060c083016000830151610fce6000860182610e68565b5060208301518482036020860152610fe68282610e88565b9150506040830151610ffb6040860182610ec1565b50606083015161100e6060860182610ec1565b5060808301516110216080860182610e68565b5060a083015161103460a0860182610ed0565b508091505092915050565b600061104b8383610fb6565b905092915050565b6000602082019050919050565b600061106b82610f8a565b6110758185610f95565b93508360208202850161108785610fa6565b8060005b858110156110c357848403895281516110a4858261103f565b94506110af83611053565b925060208a0199505060018101905061108b565b50829750879550505050505092915050565b600060208201905081810360008301526110ef8184611060565b905092915050565b7f4e487b7100000000000000000000000000000000000000000000000000000000600052602260045260246000fd5b6000600282049050600182168061113e57607f821691505b60208210811415611152576111516110f7565b5b50919050565b7f4e487b7100000000000000000000000000000000000000000000000000000000600052601160045260246000fd5b600061119282610aed565b91507fffffffffffffffffffffffffffffffffffffffffffffffffffffffffffffffff8214156111c5576111c4611158565b5b600182019050919050565b7f4e487b7100000000000000000000000000000000000000000000000000000000600052603260045260246000fdfea26469706673582212201614943cf0e82bf400df6b02afde2087748ef348436f5a590116ca544c8893cc64736f6c63430008090033",
    "linkReferences": {},
    "deployedLinkReferences": {}
}